{
  "contractName": "Insurance",
  "abi": [
    {
      "constant": true,
      "inputs": [],
      "name": "customer",
      "outputs": [
        {
          "name": "",
          "type": "string"
        }
      ],
      "payable": false,
      "stateMutability": "view",
      "type": "function"
    },
    {
      "constant": true,
      "inputs": [],
      "name": "company",
      "outputs": [
        {
          "name": "",
          "type": "string"
        }
      ],
      "payable": false,
      "stateMutability": "view",
      "type": "function"
    },
    {
      "constant": true,
      "inputs": [],
      "name": "police",
      "outputs": [
        {
          "name": "",
          "type": "string"
        }
      ],
      "payable": false,
      "stateMutability": "view",
      "type": "function"
    },
    {
      "constant": true,
      "inputs": [],
      "name": "users",
      "outputs": [
        {
          "name": "",
          "type": "string"
        }
      ],
      "payable": false,
      "stateMutability": "view",
      "type": "function"
    },
    {
      "constant": true,
      "inputs": [],
      "name": "agent",
      "outputs": [
        {
          "name": "",
          "type": "string"
        }
      ],
      "payable": false,
      "stateMutability": "view",
      "type": "function"
    },
    {
      "inputs": [],
      "payable": false,
      "stateMutability": "nonpayable",
      "type": "constructor"
    },
    {
      "constant": false,
      "inputs": [
        {
          "name": "ud",
          "type": "string"
        }
      ],
      "name": "setpolice",
      "outputs": [],
      "payable": false,
      "stateMutability": "nonpayable",
      "type": "function"
    },
    {
      "constant": true,
      "inputs": [],
      "name": "getpolice",
      "outputs": [
        {
          "name": "",
          "type": "string"
        }
      ],
      "payable": false,
      "stateMutability": "view",
      "type": "function"
    },
    {
      "constant": false,
      "inputs": [
        {
          "name": "uo",
          "type": "string"
        }
      ],
      "name": "setcustomer",
      "outputs": [],
      "payable": false,
      "stateMutability": "nonpayable",
      "type": "function"
    },
    {
      "constant": true,
      "inputs": [],
      "name": "getcustomer",
      "outputs": [
        {
          "name": "",
          "type": "string"
        }
      ],
      "payable": false,
      "stateMutability": "view",
      "type": "function"
    },
    {
      "constant": false,
      "inputs": [
        {
          "name": "pd",
          "type": "string"
        }
      ],
      "name": "setagent",
      "outputs": [],
      "payable": false,
      "stateMutability": "nonpayable",
      "type": "function"
    },
    {
      "constant": true,
      "inputs": [],
      "name": "getagent",
      "outputs": [
        {
          "name": "",
          "type": "string"
        }
      ],
      "payable": false,
      "stateMutability": "view",
      "type": "function"
    },
    {
      "constant": true,
      "inputs": [],
      "name": "getcompany",
      "outputs": [
        {
          "name": "",
          "type": "string"
        }
      ],
      "payable": false,
      "stateMutability": "view",
      "type": "function"
    },
    {
      "constant": false,
      "inputs": [
        {
          "name": "pd",
          "type": "string"
        }
      ],
      "name": "setcompany",
      "outputs": [],
      "payable": false,
      "stateMutability": "nonpayable",
      "type": "function"
    },
    {
      "constant": false,
      "inputs": [
        {
          "name": "pa",
          "type": "string"
        }
      ],
      "name": "setuser",
      "outputs": [],
      "payable": false,
      "stateMutability": "nonpayable",
      "type": "function"
    },
    {
      "constant": true,
      "inputs": [],
      "name": "getuser",
      "outputs": [
        {
          "name": "",
          "type": "string"
        }
      ],
      "payable": false,
      "stateMutability": "view",
      "type": "function"
    }
  ],
  "bytecode": "0x60806040523480156200001157600080fd5b506020604051908101604052806000815250600090805190602001906200003a929190620000e5565b5060206040519081016040528060008152506001908051906020019062000063929190620000e5565b506020604051908101604052806000815250600290805190602001906200008c929190620000e5565b50602060405190810160405280600081525060049080519060200190620000b5929190620000e5565b50602060405190810160405280600081525060039080519060200190620000de929190620000e5565b5062000194565b828054600181600116156101000203166002900490600052602060002090601f016020900481019282601f106200012857805160ff191683800117855562000159565b8280016001018555821562000159579182015b82811115620001585782518255916020019190600101906200013b565b5b5090506200016891906200016c565b5090565b6200019191905b808211156200018d57600081600090555060010162000173565b5090565b90565b6111f580620001a46000396000f3fe6080604052600436106100d5576000357c01000000000000000000000000000000000000000000000000000000009004806318433e5c146100da5780632804b2c0146101a2578063287ba4ee146102325780635d218bd2146102fa5780636904c94d1461038a5780636957d3fb1461041a5780636b98e8d7146104aa578063a858c65714610572578063c7330dd414610602578063cff8fd6914610692578063d378f2a314610722578063dc26bf47146107ea578063f0c5da391461087a578063f202027514610942578063f5ff5c76146109d2575b600080fd5b3480156100e657600080fd5b506101a0600480360360208110156100fd57600080fd5b810190808035906020019064010000000081111561011a57600080fd5b82018360208201111561012c57600080fd5b8035906020019184600183028401116401000000008311171561014e57600080fd5b91908080601f016020809104026020016040519081016040528093929190818152602001838380828437600081840152601f19601f820116905080830192505050505050509192919290505050610a62565b005b3480156101ae57600080fd5b506101b7610a7c565b6040518080602001828103825283818151815260200191508051906020019080838360005b838110156101f75780820151818401526020810190506101dc565b50505050905090810190601f1680156102245780820380516001836020036101000a031916815260200191505b509250505060405180910390f35b34801561023e57600080fd5b506102f86004803603602081101561025557600080fd5b810190808035906020019064010000000081111561027257600080fd5b82018360208201111561028457600080fd5b803590602001918460018302840111640100000000831117156102a657600080fd5b91908080601f016020809104026020016040519081016040528093929190818152602001838380828437600081840152601f19601f820116905080830192505050505050509192919290505050610b1a565b005b34801561030657600080fd5b5061030f610b34565b6040518080602001828103825283818151815260200191508051906020019080838360005b8381101561034f578082015181840152602081019050610334565b50505050905090810190601f16801561037c5780820380516001836020036101000a031916815260200191505b509250505060405180910390f35b34801561039657600080fd5b5061039f610bd6565b6040518080602001828103825283818151815260200191508051906020019080838360005b838110156103df5780820151818401526020810190506103c4565b50505050905090810190601f16801561040c5780820380516001836020036101000a031916815260200191505b509250505060405180910390f35b34801561042657600080fd5b5061042f610c74565b6040518080602001828103825283818151815260200191508051906020019080838360005b8381101561046f578082015181840152602081019050610454565b50505050905090810190601f16801561049c5780820380516001836020036101000a031916815260200191505b509250505060405180910390f35b3480156104b657600080fd5b50610570600480360360208110156104cd57600080fd5b81019080803590602001906401000000008111156104ea57600080fd5b8201836020820111156104fc57600080fd5b8035906020019184600183028401116401000000008311171561051e57600080fd5b91908080601f016020809104026020016040519081016040528093929190818152602001838380828437600081840152601f19601f820116905080830192505050505050509192919290505050610d16565b005b34801561057e57600080fd5b50610587610d30565b6040518080602001828103825283818151815260200191508051906020019080838360005b838110156105c75780820151818401526020810190506105ac565b50505050905090810190601f1680156105f45780820380516001836020036101000a031916815260200191505b509250505060405180910390f35b34801561060e57600080fd5b50610617610dd2565b6040518080602001828103825283818151815260200191508051906020019080838360005b8381101561065757808201518184015260208101905061063c565b50505050905090810190601f1680156106845780820380516001836020036101000a031916815260200191505b509250505060405180910390f35b34801561069e57600080fd5b506106a7610e70565b6040518080602001828103825283818151815260200191508051906020019080838360005b838110156106e75780820151818401526020810190506106cc565b50505050905090810190601f1680156107145780820380516001836020036101000a031916815260200191505b509250505060405180910390f35b34801561072e57600080fd5b506107e86004803603602081101561074557600080fd5b810190808035906020019064010000000081111561076257600080fd5b82018360208201111561077457600080fd5b8035906020019184600183028401116401000000008311171561079657600080fd5b91908080601f016020809104026020016040519081016040528093929190818152602001838380828437600081840152601f19601f820116905080830192505050505050509192919290505050610f12565b005b3480156107f657600080fd5b506107ff610f2c565b6040518080602001828103825283818151815260200191508051906020019080838360005b8381101561083f578082015181840152602081019050610824565b50505050905090810190601f16801561086c5780820380516001836020036101000a031916815260200191505b509250505060405180910390f35b34801561088657600080fd5b506109406004803603602081101561089d57600080fd5b81019080803590602001906401000000008111156108ba57600080fd5b8201836020820111156108cc57600080fd5b803590602001918460018302840111640100000000831117156108ee57600080fd5b91908080601f016020809104026020016040519081016040528093929190818152602001838380828437600081840152601f19601f820116905080830192505050505050509192919290505050610fce565b005b34801561094e57600080fd5b50610957610fe8565b6040518080602001828103825283818151815260200191508051906020019080838360005b8381101561099757808201518184015260208101905061097c565b50505050905090810190601f1680156109c45780820380516001836020036101000a031916815260200191505b509250505060405180910390f35b3480156109de57600080fd5b506109e7611086565b6040518080602001828103825283818151815260200191508051906020019080838360005b83811015610a27578082015181840152602081019050610a0c565b50505050905090810190601f168015610a545780820380516001836020036101000a031916815260200191505b509250505060405180910390f35b8060019080519060200190610a78929190611124565b5050565b60018054600181600116156101000203166002900480601f016020809104026020016040519081016040528092919081815260200182805460018160011615610100020316600290048015610b125780601f10610ae757610100808354040283529160200191610b12565b820191906000526020600020905b815481529060010190602001808311610af557829003601f168201915b505050505081565b8060039080519060200190610b30929190611124565b5050565b606060018054600181600116156101000203166002900480601f016020809104026020016040519081016040528092919081815260200182805460018160011615610100020316600290048015610bcc5780601f10610ba157610100808354040283529160200191610bcc565b820191906000526020600020905b815481529060010190602001808311610baf57829003601f168201915b5050505050905090565b60038054600181600116156101000203166002900480601f016020809104026020016040519081016040528092919081815260200182805460018160011615610100020316600290048015610c6c5780601f10610c4157610100808354040283529160200191610c6c565b820191906000526020600020905b815481529060010190602001808311610c4f57829003601f168201915b505050505081565b606060008054600181600116156101000203166002900480601f016020809104026020016040519081016040528092919081815260200182805460018160011615610100020316600290048015610d0c5780601f10610ce157610100808354040283529160200191610d0c565b820191906000526020600020905b815481529060010190602001808311610cef57829003601f168201915b5050505050905090565b8060029080519060200190610d2c929190611124565b5050565b606060028054600181600116156101000203166002900480601f016020809104026020016040519081016040528092919081815260200182805460018160011615610100020316600290048015610dc85780601f10610d9d57610100808354040283529160200191610dc8565b820191906000526020600020905b815481529060010190602001808311610dab57829003601f168201915b5050505050905090565b60008054600181600116156101000203166002900480601f016020809104026020016040519081016040528092919081815260200182805460018160011615610100020316600290048015610e685780601f10610e3d57610100808354040283529160200191610e68565b820191906000526020600020905b815481529060010190602001808311610e4b57829003601f168201915b505050505081565b606060048054600181600116156101000203166002900480601f016020809104026020016040519081016040528092919081815260200182805460018160011615610100020316600290048015610f085780601f10610edd57610100808354040283529160200191610f08565b820191906000526020600020905b815481529060010190602001808311610eeb57829003601f168201915b5050505050905090565b8060049080519060200190610f28929190611124565b5050565b606060038054600181600116156101000203166002900480601f016020809104026020016040519081016040528092919081815260200182805460018160011615610100020316600290048015610fc45780601f10610f9957610100808354040283529160200191610fc4565b820191906000526020600020905b815481529060010190602001808311610fa757829003601f168201915b5050505050905090565b8060009080519060200190610fe4929190611124565b5050565b60048054600181600116156101000203166002900480601f01602080910402602001604051908101604052809291908181526020018280546001816001161561010002031660029004801561107e5780601f106110535761010080835404028352916020019161107e565b820191906000526020600020905b81548152906001019060200180831161106157829003601f168201915b505050505081565b60028054600181600116156101000203166002900480601f01602080910402602001604051908101604052809291908181526020018280546001816001161561010002031660029004801561111c5780601f106110f15761010080835404028352916020019161111c565b820191906000526020600020905b8154815290600101906020018083116110ff57829003601f168201915b505050505081565b828054600181600116156101000203166002900490600052602060002090601f016020900481019282601f1061116557805160ff1916838001178555611193565b82800160010185558215611193579182015b82811115611192578251825591602001919060010190611177565b5b5090506111a091906111a4565b5090565b6111c691905b808211156111c25760008160009055506001016111aa565b5090565b9056fea165627a7a72305820221f3180432bdd6d0a148f0fbc61ff38c24f86cf656600228a0388fd1c3a57330029",
  "source": "// SPDX-License-Identifier: MIT\r\npragma solidity >= 0.4.0 <= 0.9.0;\r\n\r\ncontract Insurance {\r\n    string public police;\r\n    string public customer;\r\n    string public agent;\r\n    string public company;\r\n    string public users;\r\n\r\n    function setpolice(string memory ud) public {\r\n        police = ud;\t\r\n    }\r\n\r\n    function getpolice() public view returns (string memory) {\r\n        return police;\r\n    }\r\n\r\n    function setcustomer(string memory uo) public {\r\n        customer = uo;\t\r\n    }\r\n\r\n    function getcustomer() public view returns (string memory) {\r\n        return customer;\r\n    }\r\n\r\n    function setagent(string memory pd) public {\r\n        agent = pd;\t\r\n    }\r\n\r\n    function getagent() public view returns (string memory) {\r\n        return agent;\r\n    }\r\n\r\n    function getcompany() public view returns (string memory) {\r\n        return company;\r\n    }\r\n\r\n    function setcompany(string memory pd) public {\r\n        company = pd;\t\r\n    }\r\n \r\n    function setuser(string memory pa) public {\r\n        users = pa;\t\r\n    }\r\n\r\n    function getuser() public view returns (string memory) {\r\n        return users;\r\n    }\r\n\r\n    constructor() public {\r\n    police = \"\";\r\n    customer = \"\";\r\n\tagent = \"\";\r\n    users = \"\";\r\n    company = \"\";\r\n    }\r\n}",
  "sourcePath": "C:\\Users\\ujjwa\\OneDrive\\Desktop\\code folder\\Blockchain-based secure privacy-preserving vehicle accident and insurance registration\\extension\\contracts\\Insurance.sol",
  "compiler": {
    "name": "solc",
    "version": "0.5.1+commit.c8a2cb62.Emscripten.clang"
  },
  "schemaVersion": "3.4.16",
  "updatedAt": "2024-03-19T13:23:56.237Z",
  "networkType": "ethereum",
  "devdoc": {
    "methods": {}
  },
  "userdoc": {
    "methods": {}
  }
}